{
  "contractName": "PaymentContract",
  "abi": [
    {
      "inputs": [],
      "stateMutability": "nonpayable",
      "type": "constructor"
    },
    {
      "inputs": [],
      "name": "balance",
      "outputs": [
        {
          "internalType": "uint256",
          "name": "",
          "type": "uint256"
        }
      ],
      "stateMutability": "view",
      "type": "function",
      "constant": true
    },
    {
      "inputs": [],
      "name": "owner",
      "outputs": [
        {
          "internalType": "address",
          "name": "",
          "type": "address"
        }
      ],
      "stateMutability": "view",
      "type": "function",
      "constant": true
    },
    {
      "inputs": [],
      "name": "pay",
      "outputs": [],
      "stateMutability": "payable",
      "type": "function",
      "payable": true
    },
    {
      "inputs": [
        {
          "internalType": "uint256",
          "name": "amount",
          "type": "uint256"
        }
      ],
      "name": "withdraw",
      "outputs": [],
      "stateMutability": "nonpayable",
      "type": "function"
    }
  ],
  "bytecode": "0x608060405234801561001057600080fd5b50336000806101000a81548173ffffffffffffffffffffffffffffffffffffffff021916908373ffffffffffffffffffffffffffffffffffffffff1602179055506103e6806100606000396000f3fe60806040526004361061003f5760003560e01c80631b9265b8146100445780632e1a7d4d1461004e5780638da5cb5b14610077578063b69ef8a8146100a2575b600080fd5b61004c6100cd565b005b34801561005a57600080fd5b5061007560048036038101906100709190610244565b6100f5565b005b34801561008357600080fd5b5061008c6101df565b60405161009991906102b2565b60405180910390f35b3480156100ae57600080fd5b506100b7610203565b6040516100c491906102dc565b60405180910390f35b600034116100da57600080fd5b34600160008282546100ec9190610326565b92505081905550565b60008054906101000a900473ffffffffffffffffffffffffffffffffffffffff1673ffffffffffffffffffffffffffffffffffffffff163373ffffffffffffffffffffffffffffffffffffffff161461014d57600080fd5b60015481111561015c57600080fd5b806001600082825461016e919061037c565b9250508190555060008054906101000a900473ffffffffffffffffffffffffffffffffffffffff1673ffffffffffffffffffffffffffffffffffffffff166108fc829081150290604051600060405180830381858888f193505050501580156101db573d6000803e3d6000fd5b5050565b60008054906101000a900473ffffffffffffffffffffffffffffffffffffffff1681565b60015481565b600080fd5b6000819050919050565b6102218161020e565b811461022c57600080fd5b50565b60008135905061023e81610218565b92915050565b60006020828403121561025a57610259610209565b5b60006102688482850161022f565b91505092915050565b600073ffffffffffffffffffffffffffffffffffffffff82169050919050565b600061029c82610271565b9050919050565b6102ac81610291565b82525050565b60006020820190506102c760008301846102a3565b92915050565b6102d68161020e565b82525050565b60006020820190506102f160008301846102cd565b92915050565b7f4e487b7100000000000000000000000000000000000000000000000000000000600052601160045260246000fd5b60006103318261020e565b915061033c8361020e565b9250827fffffffffffffffffffffffffffffffffffffffffffffffffffffffffffffffff03821115610371576103706102f7565b5b828201905092915050565b60006103878261020e565b91506103928361020e565b9250828210156103a5576103a46102f7565b5b82820390509291505056fea2646970667358221220463527ad067da9111922339d3df8844a5576cbb2f9b6be0c89d4d1d381d2091264736f6c634300080d0033",
  "immutableReferences": {},
  "source": "// SPDX-License-Identifier: MIT\npragma solidity ^0.8.0;\n\ncontract PaymentContract {\n    address public owner;\n    uint256 public balance;\n\n    constructor() {\n        owner = msg.sender;\n    }\n\n    function pay() external payable {\n        require(msg.value > 0);\n        balance += msg.value;\n    }\n\n    function withdraw(uint256 amount) external {\n        require(msg.sender == owner);\n        require(amount <= balance);\n        balance -= amount;\n        payable(owner).transfer(amount);\n    }\n}\n",
  "sourcePath": "/Users/tomdesvignes/Documents/RPI/BlockChain/TD2/contracts/PaymentContract.sol",
  "compiler": {
    "name": "solc",
    "version": "0.8.13+commit.abaa5c0e.Emscripten.clang"
  },
  "schemaVersion": "3.4.15",
  "updatedAt": "2023-08-22T13:19:06.736Z",
  "networkType": "ethereum",
  "devdoc": {
    "kind": "dev",
    "methods": {},
    "version": 1
  },
  "userdoc": {
    "kind": "user",
    "methods": {},
    "version": 1
  }
}