{
  "contractName": "SimpleStorage",
  "abi": [
    {
      "inputs": [],
      "name": "read",
      "outputs": [
        {
          "internalType": "uint256",
          "name": "",
          "type": "uint256"
        }
      ],
      "stateMutability": "view",
      "type": "function",
      "constant": true
    },
    {
      "inputs": [
        {
          "internalType": "uint256",
          "name": "newValue",
          "type": "uint256"
        }
      ],
      "name": "write",
      "outputs": [],
      "stateMutability": "nonpayable",
      "type": "function"
    },
    {
      "inputs": [
        {
          "internalType": "uint256",
          "name": "newValue",
          "type": "uint256"
        }
      ],
      "name": "add",
      "outputs": [],
      "stateMutability": "nonpayable",
      "type": "function"
    }
  ],
  "bytecode": "0x608060405234801561001057600080fd5b50610217806100206000396000f3fe608060405234801561001057600080fd5b50600436106100415760003560e01c80631003e2d2146100465780632f048afa1461006257806357de26a41461007e575b600080fd5b610060600480360381019061005b9190610105565b61009c565b005b61007c60048036038101906100779190610105565b6100b7565b005b6100866100c1565b6040516100939190610141565b60405180910390f35b806000808282546100ad919061018b565b9250508190555050565b8060008190555050565b60008054905090565b600080fd5b6000819050919050565b6100e2816100cf565b81146100ed57600080fd5b50565b6000813590506100ff816100d9565b92915050565b60006020828403121561011b5761011a6100ca565b5b6000610129848285016100f0565b91505092915050565b61013b816100cf565b82525050565b60006020820190506101566000830184610132565b92915050565b7f4e487b7100000000000000000000000000000000000000000000000000000000600052601160045260246000fd5b6000610196826100cf565b91506101a1836100cf565b9250827fffffffffffffffffffffffffffffffffffffffffffffffffffffffffffffffff038211156101d6576101d561015c565b5b82820190509291505056fea26469706673582212201a211c20498b36860b760da3f3ced5134e296654b707ae3ce0b981e8c8d5aa5864736f6c634300080d0033",
  "immutableReferences": {},
  "source": "// SPDX-License-Identifier: MIT\npragma solidity >=0.4.22 <0.9.0;\n\ncontract SimpleStorage {\n    uint256 value;\n\n    function read() public view returns (uint256) {\n        return value;\n    }\n\n    function write(uint256 newValue) public {\n        value = newValue;\n    }\n\n    function add(uint256 newValue) public {\n        value += newValue;\n    }\n}\n",
  "sourcePath": "/Users/tomdesvignes/Documents/RPI/BlockChain/TD2/contracts/SimpleStorage.sol",
  "compiler": {
    "name": "solc",
    "version": "0.8.13+commit.abaa5c0e.Emscripten.clang"
  },
  "schemaVersion": "3.4.15",
  "updatedAt": "2023-08-22T13:19:06.732Z",
  "networkType": "ethereum",
  "devdoc": {
    "kind": "dev",
    "methods": {},
    "version": 1
  },
  "userdoc": {
    "kind": "user",
    "methods": {},
    "version": 1
  }
}