{
  "contractName": "Tickets",
  "abi": [
    {
      "inputs": [],
      "stateMutability": "nonpayable",
      "type": "constructor"
    },
    {
      "inputs": [],
      "name": "owner",
      "outputs": [
        {
          "internalType": "address",
          "name": "",
          "type": "address"
        }
      ],
      "stateMutability": "view",
      "type": "function",
      "constant": true
    },
    {
      "inputs": [
        {
          "internalType": "uint256",
          "name": "",
          "type": "uint256"
        }
      ],
      "name": "tickets",
      "outputs": [
        {
          "internalType": "uint256",
          "name": "price",
          "type": "uint256"
        },
        {
          "internalType": "address",
          "name": "owner",
          "type": "address"
        }
      ],
      "stateMutability": "view",
      "type": "function",
      "constant": true
    },
    {
      "inputs": [
        {
          "internalType": "uint256",
          "name": "_index",
          "type": "uint256"
        }
      ],
      "name": "buyTicket",
      "outputs": [],
      "stateMutability": "payable",
      "type": "function",
      "payable": true
    }
  ],
  "bytecode": "0x6080604052600080546001600160a01b0319163317905534801561002257600080fd5b5060005b60648110156100a35767016345785d8a00006001826064811061004b5761004b6100a9565b6002020155600060018260648110610065576100656100a9565b6002020160010160006101000a8154816001600160a01b0302191690836001600160a01b03160217905550808061009b906100bf565b915050610026565b506100e6565b634e487b7160e01b600052603260045260246000fd5b6000600182016100df57634e487b7160e01b600052601160045260246000fd5b5060010190565b610205806100f56000396000f3fe6080604052600436106100345760003560e01c806350b447121461003957806367dd74ca1461007b5780638da5cb5b14610090575b600080fd5b34801561004557600080fd5b506100596100543660046101a0565b6100c8565b604080519283526001600160a01b039091166020830152015b60405180910390f35b61008e6100893660046101a0565b6100f3565b005b34801561009c57600080fd5b506000546100b0906001600160a01b031681565b6040516001600160a01b039091168152602001610072565b600181606481106100d857600080fd5b6002020180546001909101549091506001600160a01b031682565b606481108015610101575060015b61010a57600080fd5b60006001826064811061011f5761011f6101b9565b60020201600101546001600160a01b03161461013a57600080fd5b6001816064811061014d5761014d6101b9565b600202015434101561015e57600080fd5b3360018260648110610172576101726101b9565b6002020160010160006101000a8154816001600160a01b0302191690836001600160a01b0316021790555050565b6000602082840312156101b257600080fd5b5035919050565b634e487b7160e01b600052603260045260246000fdfea264697066735822122016ab4c4b0255a0b534fa53b4efe1834b004d83f0db8c630079f3047cb353debd64736f6c63430008120033",
  "immutableReferences": {},
  "source": "// SPDX-License-Identifier: MIT\npragma solidity >=0.4.22 <0.9.0;\n\nuint256 constant TOTAL_TICKETS = 100;\n\ncontract Tickets {\n    address public owner = msg.sender;\n\n    struct Ticket {\n        uint256 price;\n        address owner;\n    }\n\n    Ticket[TOTAL_TICKETS] public tickets;\n\n    constructor() {\n        for (uint256 i = 0; i < TOTAL_TICKETS; i++) {\n            tickets[i].price = 1e17; // 0.1 ETH\n            tickets[i].owner = address(0x0);\n        }\n    }\n\n    function buyTicket(uint256 _index) external payable {\n        require(_index < TOTAL_TICKETS && _index >= 0);\n        require(tickets[_index].owner == address(0x0));\n        require(msg.value >= tickets[_index].price);\n        tickets[_index].owner = msg.sender;\n    }\n}\n",
  "sourcePath": "/Users/tomdesvignes/Documents/RPI/BlockChain/TD2/contracts/Tickets.sol",
  "compiler": {
    "name": "solc",
    "version": "0.8.18+commit.87f61d96.Emscripten.clang"
  },
  "schemaVersion": "3.4.15",
  "updatedAt": "2023-08-22T10:56:45.730Z",
  "networkType": "ethereum",
  "devdoc": {
    "kind": "dev",
    "methods": {},
    "version": 1
  },
  "userdoc": {
    "kind": "user",
    "methods": {},
    "version": 1
  }
}